:040000000DEF00F010
:0400080091EF1BF069
:06001800FF00B7EF1AF033
:0720000000020002040000D1
:102008000001A451800BA96FA451A425AB6FA3AF05
:1020180010EF10F012EF10F013EF10F0AB81AB518E
:10202800D8B419EF10F01BEF10F030EF10F0AB2917
:10203800D8A421EF10F023EF10F02BEF10F0000ED2
:10204800A16F000EA26F000EA36F000EA46FA38FE6
:10205800000EA46F38EF10F0000EA16F000EA26FF3
:10206800000EA36F000EA46FA851800BAA6FA95190
:10207800AA19D8B442EF10F044EF10F045EF10F071
:10208800A98DA851A825AA6FA7AF4DEF10F04FEF63
:1020980010F050EF10F0AA81AA51D8B456EF10F002
:1020A80058EF10F06DEF10F0AA29D8A45EEF10F0E9
:1020B80060EF10F068EF10F0000EA56F000EA66F2D
:1020C800000EA76F000EA86FA78F000EA86F75EF00
:1020D80010F0000EA56F000EA66F000EA76F000E81
:1020E800A86FAB51AA5DD8B07CEF10F07EEF10F06E
:1020F800A5EF10F0A9AD83EF10F085EF10F087EF92
:1021080010F0800EA91BABC0ACF0AAC0ABF0ACC0FD
:10211800AAF0A1C0ACF0A5C0A1F0ACC0A5F0A2C0C7
:10212800ACF0A6C0A2F0ACC0A6F0A3C0ACF0A7C0AB
:10213800A3F0ACC0A7F0A4C0ACF0A8C0A4F0ACC099
:10214800A8F0000EAC6FAB51AAC039F03A6A395EFC
:10215800000E3A5A3ABEBAEF10F03A5009E11A0E98
:10216800395CD8A0BAEF10F0BCEF10F0F3EF10F024
:10217800A151A211A311A411D8A4C5EF10F0C8EF62
:1021880010F0010EC9EF10F0000EAC6F000EA16F39
:10219800000EA26F000EA36F000EA46FAAC0ABF0D2
:1021A800FCEF10F0ACA1DBEF10F0DDEF10F0E3EF87
:1021B80010F0D890AC310109AC6FE5EF10F0D89071
:1021C800AC33A1A1EAEF10F0ECEF10F0EDEF10F056
:1021D800AC8FA435A433A333A233A133AB2BAA51BC
:1021E800AB5DD8A0FAEF10F0FCEF10F0D6EF10F0CE
:1021F800A9BD01EF11F003EF11F043EF11F0AB515E
:10220800D8A409EF11F00BEF11F015EF11F0000E43
:10221800A16F000EA26F000EA36F000EA46F64EFF3
:1022280012F0A551A127A651A223A751A323A85173
:10223800A423A4A122EF11F024EF11F0D0EF11F0A4
:10224800ACA129EF11F02BEF11F031EF11F0D8907C
:10225800AC310109AC6F33EF11F0D890AC33A1A1C8
:1022680038EF11F03AEF11F03BEF11F0AC8FA435D5
:10227800A433A333A233A133AB2BD0EF11F0A55174
:10228800A15DA651A259A751A359A451800A396E3C
:10229800A851800A3958D8B054EF11F056EF11F010
:1022A80081EF11F0A151A55D396EA251A6593A6E80
:1022B800A351A7593B6EA451A8593C6EFF0E39246F
:1022C800A16FFF0E3A20A26FFF0E3B20A36FFF0EF7
:1022D8003C20A46F800EA91BAC6DAC51D8A477EF3D
:1022E80011F079EF11F089EF11F0010EA127000E1E
:1022F800A223A323A42389EF11F0A551A15FA6511E
:10230800A25BA751A35BA851A45BA151A211A31181
:10231800A411D8A492EF11F094EF11F0C9EF11F0C5
:10232800AC51D8A49AEF11F09CEF11F0C9EF11F05D
:10233800000EA16F000EA26F000EA36F000EA46F17
:1023480064EF12F0D890A137A237A337A437ACAF07
:10235800B0EF11F0B2EF11F0B3EF11F0A181ACA121
:10236800B8EF11F0BAEF11F0BEEF11F0D880AC372A
:10237800C0EF11F0D890AC37AB51D8B4C6EF11F01C
:10238800C8EF11F0C9EF11F0AB07A3AFCEEF11F012
:10239800D0EF11F0A6EF11F0000EAA6FACAFD7EF97
:1023A80011F0D9EF11F0F1EF11F0ACC039F07F0E58
:1023B8003916D8B4E2EF11F0E4EF11F0E8EF11F0BC
:1023C800010EAA6FF1EF11F0A1A1EDEF11F0EFEFFF
:1023D80011F0F1EF11F0E4EF11F0AA51D8B4F7EFD2
:1023E80011F0F9EF11F024EF12F0010EA127000E01
:1023F800A223A323A423A4A104EF12F006EF12F052
:1024080024EF12F0A1C039F0A2C03AF0A3C03BF00B
:10241800A4C03CF03C343C323B323A32393239C009
:10242800A1F03AC0A2F03BC0A3F03CC0A4F0AB2995
:10243800D8B421EF12F023EF12F024EF12F0AB2BF7
:10244800AB29D8B42AEF12F02CEF12F034EF12F0C7
:10245800AB51D8A432EF12F034EF12F046EF12F07D
:10246800000EA16F000EA26F000EA36F000EA46FE6
:10247800AB51D8A442EF12F044EF12F046EF12F03D
:10248800000EA96FABA14BEF12F04DEF12F050EF19
:1024980012F0A38F51EF12F0A39FD890AB31A46F25
:1024A800A9AF59EF12F05BEF12F05CEF12F0A48FB6
:1024B800A1C0A1F0A2C0A2F0A3C0A3F0A4C0A4F040
:1024C80012001550800B1E6E15501524246E14AE84
:1024D80070EF12F072EF12F073EF12F024802450B4
:1024E800D8B479EF12F07BEF12F08EEF12F02428B7
:1024F800D8A481EF12F083EF12F08BEF12F0000EE8
:10250800126E000E136E000E146E000E156E148EF1
:1025180096EF12F0000E126E000E136E000E146E7F
:10252800000E156E1950800B1E1A19501924236EAF
:1025380018AEA1EF12F0A3EF12F0A4EF12F023806F
:102548002350D8B4AAEF12F0ACEF12F0BFEF12F09C
:102558002328D8A4B2EF12F0B4EF12F0BCEF12F0B7
:10256800000E166E000E176E000E186E000E196E15
:10257800188EC7EF12F0000E166E000E176E000EC2
:10258800186E000E196E2350D8B4CDEF12F0CFEFAD
:1025980012F0D7EF12F02450D8A4D5EF12F0D7EFED
:1025A80012F0E1EF12F0000E126E000E136E000E24
:1025B800146E000E156E8BEF14F0185012026F0097
:1025C800CCFF29F06F00D0FF2AF029501F6E206A37
:1025D800216A226A2A50256E266A276A286A1750B5
:1025E80013026F00CCFF29F06F00D0FF2AF02950AA
:1025F8001F26000E2022212222222A502526000EE4
:10260800262227222822165014026F00CCFF29F018
:102618006F00D0FF2AF029501F26000E2022212209
:1026280022222A502526000E26222722282221C0CF
:1026380022F020C021F01FC020F01F6A165013029C
:102648006F00CCFF29F06F00D0FF2AF029501F2619
:102658002A502022000E2122000E22221750120298
:102668006F00CCFF29F06F00D0FF2AF029501F26F9
:102678002A502022000E2122000E222221C022F000
:1026880020C021F01FC020F01F6A165012026F00F0
:10269800CCFF29F06F00D0FF2AF029501F262A50BE
:1026A8002022000E2122000E2222185013026F0051
:1026B800CCFF29F06F00D0FF2AF0295025262A5098
:1026C8002622000E2722000E2822175014026F001F
:1026D800CCFF29F06F00D0FF2AF0295025262A5078
:1026E8002622000E2722000E2822185014026F00FE
:1026F800CCFF29F06F00D0FF2AF029501A6E2A501B
:102708001B6E1C6A1D6A1CC01DF01BC01CF01AC081
:102718001BF01A6A1A5025261B5026221C50272205
:102728001D5028221FC01AF020C01BF021C01CF029
:1027380022C01DF0190EA6EF13F0D8901D321C32DE
:102748001B321A32E82EA1EF13F01A5025261B501F
:1027580026221C5027221D50282221C022F020C0EA
:1027680021F01FC020F01F6A235024C01AF01B6AF2
:102778001A26000E1B22820E1A24296EFF0E1B2019
:102788002A6EDCEF13F0D890253626362736283601
:1027980022AED1EF13F0D3EF13F0D4EF13F025806E
:1027A800D8901F362036213622362906D8A02A0688
:1027B80027AEE1EF13F0E3EF13F0C7EF13F0000ECD
:1027C800236E22AEEAEF13F0ECEF13F010EF14F0E3
:1027D800FF0E1F141A6EFF0E20141B6EFF0E21141D
:1027E8001C6E7F0E22141D6E1A501B101C101D101B
:1027F800D8B401EF14F003EF14F007EF14F0010E52
:10280800236E10EF14F025A00CEF14F00EEF14F067
:1028180010EF14F003EF14F02350D8B416EF14F0AF
:1028280018EF14F03CEF14F0010E2526000E2622B6
:102838002722282228A023EF14F025EF14F03CEFDC
:1028480014F025C01AF026C01BF027C01CF028C0C1
:102858001DF01D341D321C321B321A321AC025F0ED
:102868001BC026F01CC027F01DC028F0294A2A2AC0
:102878002ABE47EF14F02A5008E12928D8A047EFCC
:1028880014F049EF14F053EF14F0000E256E000E0B
:10289800266E800E276E7F0E286E81EF14F02ABEFA
:1028A80060EF14F02A5006E12904D8B05EEF14F066
:1028B80060EF14F06CEF14F0000E256E000E266E1B
:1028C800000E276E000E286E000E1E6E81EF14F0AB
:1028D80029C024F0FF0E2516FF0E26167F0E271698
:1028E800000E281624A07BEF14F07DEF14F07EEF85
:1028F80014F0278ED8902430286E1E50281225C038
:1029080012F026C013F027C014F028C015F01200EA
:102918002350800B306E23502324376E22AE97EF5E
:1029280014F099EF14F09AEF14F037803750D8B4B8
:10293800A0EF14F0A2EF14F0B7EF14F03728D8A4E2
:10294800A8EF14F0AAEF14F0B2EF14F0000E206E06
:10295800000E216E000E226E000E236E228E000ED7
:10296800236EBFEF14F0000E206E000E216E000ED5
:10297800226E000E236E2750800B301A2750272412
:10298800386E26AECAEF14F0CCEF14F0CDEF14F089
:1029980038803850D8B4D3EF14F0D5EF14F0EAEFFC
:1029A80014F03828D8A4DBEF14F0DDEF14F0E5EFCD
:1029B80014F0000E246E000E256E000E266E000E1A
:1029C800276E268E000E276EF2EF14F0000E246E8E
:1029D800000E256E000E266E000E276E2450251060
:1029E80026102710D8A4FBEF14F0FDEF14F015EF14
:1029F80015F0000E206E000E216E000E226E000EE5
:102A0800236E800E22127F0E23123050231220C014
:102A180020F021C021F022C022F023C023F058EF7B
:102A280016F03750D8A41BEF15F01DEF15F027EF5F
:102A380015F0000E206E000E216E000E226E000EA4
:102A4800236E58EF16F0385037C028F0296A285EF0
:102A5800000E295A7F0E2824316E000E2920326E6E
:102A680020C02CF021C02DF022C02EF023C02FF062
:102A7800000E206E000E216E000E226E000E236ED8
:102A8800000E336E000E346E000E356E000E366E7C
:102A9800000E386E88EF15F03850D8B456EF15F0A0
:102AA80058EF15F06FEF15F0D8902C362D362E36DE
:102AB8002F36D890203621362236233636AE67EFA9
:102AC80015F069EF15F06AEF15F02080D8903336CD
:102AD80034363536363624502C5C25502D58265041
:102AE8002E5827502F58D8A07CEF15F07EEF15F000
:102AF80087EF15F0368C24502C5E25502D5A265021
:102B08002E5A27502F5A382A190E38648EEF15F08E
:102B180090EF15F050EF15F02C502D102E102F10AF
:102B2800D8B499EF15F09BEF15F0B3EF15F033809B
:102B3800B3EF15F0D890203621362236233636AE3C
:102B4800A8EF15F0AAEF15F0ABEF15F02080D8909C
:102B580033363436353636363106D8A0320622AE0C
:102B6800B8EF15F0BAEF15F09EEF15F0000E386EBD
:102B780036AEC1EF15F0C3EF15F0E7EF15F0FF0E15
:102B88003314286EFF0E3414296EFF0E35142A6E86
:102B98007F0E36142B6E285029102A102B10D8B40B
:102BA800D8EF15F0DAEF15F0DEEF15F0010E386EFC
:102BB800E7EF15F020A0E3EF15F0E5EF15F0E7EFEC
:102BC80015F0DAEF15F03850D8B4EDEF15F0EFEF57
:102BD80015F013EF16F0010E2026000E21222222F6
:102BE800232223A0FAEF15F0FCEF15F013EF16F0EF
:102BF80020C028F021C029F022C02AF023C02BF0E1
:102C08002B342B322A322932283228C020F029C00E
:102C180021F02AC022F02BC023F0314A322A32BEDA
:102C28001EEF16F0325008E13128D8A01EEF16F03A
:102C380020EF16F02BEF16F0000E326E3168000E02
:102C4800206E000E216E000E226E000E236E32BE24
:102C580038EF16F0325006E13104D8B036EF16F0EE
:102C680038EF16F046EF16F0000E326E000E316E99
:102C7800000E206E000E216E000E226E000E236ED6
:102C8800000E306E31C037F037A04DEF16F04FEF21
:102C980016F052EF16F0228E53EF16F0229ED890BF
:102CA8003730236E09EF15F012000DEC1DF0000E01
:102CB8000001BD6F100EBE6F0E0EBF6F000EC06F0D
:102CC800010EC16FF3EC19F02EEC1CF004EC1DF0B2
:102CD800010E58EC1CF0EB0E0001BD6F000EBE6F2C
:102CE800E70EBF6F000EC06F5CEC1BF0BDC08DF02F
:102CF800BEC08EF0EB0E0001BD6F000EBE6F9D0EC4
:102D0800BF6F000EC06F5CEC1BF0BDC08BF0BEC087
:102D18008CF000019005D8A494EF16F096EF16F009
:102D28008DEF16F0180E8F19D8A49DEF16F09FEFAF
:102D380016F08DEF16F0BDB0A4EF16F0A7EF16F061
:102D4800010EA8EF16F0000EFF0AC86FBD50C81993
:102D5800FE0BC819BD6E000E906F000E8F6F91C0EC
:102D6800C8F092C0C9F093C0CAF094C0CBF0040E6A
:102D7800C3EF16F0D890CB33CA33C933C833E82E23
:102D8800BEEF16F0C8C060F0C9C061F0626B636B3B
:102D980095C0C8F096C0C9F097C0CAF098C0CBF0EB
:102DA800040EDCEF16F0D890CB33CA33C933C833DE
:102DB800E82ED7EF16F0C8C064F0C9C065F0666B9E
:102DC800676B99C0C8F09AC0C9F09BC0CAF09CC094
:102DD800CBF0040EF5EF16F0D890CB33CA33C933D5
:102DE800C833E82EF0EF16F0C8C068F0C9C069F023
:102DF8006A6B6B6B000E916F000E926F000E936FF3
:102E0800000E946F000E956F000E966F000E976F70
:102E1800000E986F000E996F000E9A6F000E9B6F50
:102E2800000E9C6F60C012F061C013F0DA0E146ED1
:102E3800000E156E000E166EE2EC18F064C012F06B
:102E480065C013F0DA0E146E000E156E040E166EC1
:102E5800E2EC18F068C012F069C013F0DA0E146ED4
:102E6800000E156E080E166EE2EC18F024EC1DF03C
:102E78008DEF16F00DEF00F01A6E1A50D8B447EF28
:102E880017F049EF17F06BEF17F015BE50EF17F07A
:102E98004EEF17F06BEF17F012C016F013C017F0D3
:102EA80014C018F015C019F0161E171E181E191E8A
:102EB800162A000E17221822192216C01CF017C055
:102EC8001DF018C01EF019C01FF073EF17F012C0E4
:102ED8001CF013C01DF014C01EF015C01FF01250D6
:102EE800131014101510D8A47CEF17F07EEF17F00C
:102EF80088EF17F0000E126E000E136E000E146E9F
:102F0800000E156E19EF18F0960E1B6E92EF17F063
:102F18001B2AD8901F321E321D321C32000E1C1480
:102F2800166E000E1D14176E000E1E14186EFE0E7F
:102F38001F14196E1650171018101910D8A4A7EFDF
:102F480017F0A9EF17F08CEF17F0B7EF17F01B2A5F
:102F5800010E1C26000E1D221E221F22D8901F3291
:102F68001E321D321C32000E1C14166E000E1D146B
:102F7800176E000E1E14186EFF0E1F14196E1650D1
:102F8800171018101910D8A4CCEF17F0CEEF17F0BF
:102F9800ABEF17F0D6EF17F01B06D8901C361D368E
:102FA8001E361F361EBEDBEF17F0DDEF17F0E5EF1C
:102FB80017F0020E1B60E3EF17F0E5EF17F0D0EF04
:102FC80017F01BB0EAEF17F0ECEF17F0EDEF17F082
:102FD8001E9ED8901B321BC016F0176A186A196A11
:102FE80016C019F0186A176A166A16501C1217507C
:102FF8001D1218501E1219501F121A50D8B407EF7C
:1030080018F009EF18F011EF18F015BE10EF18F0CE
:103018000EEF18F011EF18F01F8E1CC012F01DC033
:1030280013F01EC014F01FC015F01200FF0FFD0FA3
:10303800FA0FF50FEE0FE50FDA0FCD0FBE0FAD0F3C
:103048009A0F850F6F0F560F3C0F1F0F010FE10EE0
:10305800C00E9C0E770E510E290EFF0DD40DA70D34
:10306800790D490D180DE60CB20C7E0C480C110CAC
:10307800D90BA10B670B2C0BF10AB50A780A3A0A8F
:10308800FC09BE097F093F090009C00880083F08FC
:10309800FF07BF077E073E07FE06BF067F064006FE
:1030A8000206C405860549050D05D20497045D048A
:1030B8002504ED03B60380034C031803E602B502AA
:1030C800850257022A02FF01D501AD01870162017D
:1030D8003E011D01FD00DF00C200A8008F0079003D
:1030E800640051004000310024001900100009005C
:1030F800040001000000010004000900100019008C
:103108002400310040005100640079008F00A800BD
:10311800C200DF00FD001D013E0162018701AD0113
:10312800D501FF012A0257028502B502E6021803FB
:103138004C038003B603ED0325045D049704D20411
:103148000D0549058605C405020640067F06BF062B
:10315800FE063E077E07BF07FF073F088008C00836
:1031680000093F097F09BE09FC093A0A780AB50A2D
:10317800F10A2C0B670BA10BD90B110C480C7E0C18
:10318800B20CE60C180D490D790DA70DD40DFF0DE5
:10319800290E510E770E9C0EC00EE10E010F1F0F67
:1031A8003C0F560F6F0F850F9A0FAD0FBE0FCD0F47
:1031B800DA0FE50FEE0FF50FFA0FFD0F12500F0B98
:1031C800206E12C017F013C018F0040E196ED890B4
:1031D80018321732192EEBEF18F017500F0B216E1B
:1031E80013500F0B226E16501424D96E000E1520A2
:1031F800DA6E300EDF6E0A0E226005EF19F007EF67
:1032080019F00FEF19F0300E22241A6E1B6A000E07
:103218001B2215EF19F0370E22241A6E1B6A000EB6
:103228001B2216501424176E000E1520186E010E5E
:103238001724D96E000E1820DA6E60006BF0DFFFDD
:103248000A0E21602AEF19F02CEF19F034EF19F06B
:10325800300E21241C6E1D6A000E1D223AEF19F053
:10326800370E21241C6E1D6A000E1D2216501424D0
:10327800176E000E1520186E020E1724D96E000E58
:103288001820DA6E600073F0DFFF0A0E20604FEF3F
:1032980019F051EF19F059EF19F0300E20241E6E75
:1032A8001F6A000E1F225FEF19F0370E20241E6ED2
:1032B8001F6A000E1F2216501424176E000E1520C8
:1032C800186E030E1724D96E000E1820DA6E6000EF
:1032D8007BF0DFFF12000001B735B8353E6E3E5077
:1032E800D8A479EF19F07BEF19F085EF19F0000EEB
:1032F800B56F000EB66F000EB76F000EB86FF2EF25
:1033080019F0B5C0B9F0B6C0BAF0B7C0BBF0B8C0D4
:10331800BCF0200E95EF19F0D890BC33BB33BA330C
:10332800B933E82E90EF19F0B9513D6EB78FFF0E03
:10333800B517FF0EB617FF0EB717000EB817960E83
:103348003E5E3EBEACEF19F0AAEF19F0C2EF19F0DD
:103358003E50800A970FD8B0B4EF19F0B6EF19F0C5
:10336800B8EF19F07BEF19F0D890B833B733B6330C
:10337800B5333E3EB8EF19F0DAEF19F01F0E3E6490
:10338800C8EF19F0CAEF19F0D2EF19F07BEF19F076
:10339800D890B537B637B737B8373E063E50D8A4B9
:1033A800D8EF19F0DAEF19F0CCEF19F03D50D8B496
:1033B800E0EF19F0E2EF19F0EAEF19F0B81FB71FC4
:1033C800B61FB56D000EB623B723B823B5C0B5F048
:1033D800B6C0B6F0B7C0B7F0B8C0B8F01200D29E09
:1033E800000E0001A56F000EA66F800EA76FBF0E1E
:1033F800A86FBDC0C2F0BEC0C3F0BFC0C4F0C0C09B
:10340800C5F0020ED890C237C337C437C537E82E87
:1034180006EF1AF0C2C012F0C3C013F0C4C014F013
:10342800C5C015F0000E40EC17F012C024F013C010
:1034380025F014C026F015C027F0000E206E240ECB
:10344800216E740E226E4C0E236E8CEC14F020C08C
:10345800A1F021C0A2F022C0A3F023C0A4F004EC84
:1034680010F0A1C0B5F0A2C0B6F0A3C0B7F0A4C0D8
:10347800B8F06FEC19F0B5C0C6F0B6C0C7F00001DF
:10348800C7513D01F66F60001BF3F5FDF28FF00E9A
:10349800F217170E3A01E56F130E166F3D01F38F01
:1034A8003901938993873D01F289D28E1200A3ECEA
:1034B8001CF0600027F0D9FF60002BF0DAFFDF5026
:1034C8000C6E0C50040D6F00CCFF0DF06F00D0FF98
:1034D8000EF00D500724D96E0E500820DA6E0150F8
:1034E800DE260250DE22000EDE22DE22600027F0F9
:1034F800D9FF60002BF0DAFFDF500C6E0D6AFF0E6B
:103508000E6EFF0E0F6E0B50106E116A0E501026C5
:103518000F5011220C50101807E10D501118D8A4A3
:1035280098EF1AF09AEF1AF0A5EF1AF0600027F05A
:10353800D9FF60002BF0DAFF000EDF6E010EB6EF48
:103548001AF0600027F0D9FF60002BF0DAFFDF2ABD
:10355800600027F0D9FF60002BF0DAFFDF50FAECAB
:103568001CF0000E1200340EF66E300EF76E000ED0
:10357800F86E00EE64F110EE90F109006F00D7FFCD
:10358800EEFFE550E150F9E1E250F7E1B80EF66ED2
:10359800390EF76E000EF86E00EECCF010EE23F048
:1035A80009006F00D7FFEEFFE550E150F9E14E0E3C
:1035B800F66E3A0EF76E000EF86E09006F00D4FF33
:1035C8004CF009006F00D4FF4DF009006F00D4FFE4
:1035D8004EF000EE00F1640EEE6AE806FDE100EE42
:1035E80060F0410EEE6AE806FDE100EE3FF00D0ED8
:1035F800EE6AE806FDE1080ED56E000ED66E000EE6
:10360800D76E000EF86E200EF76E000159EF16F017
:10361800000EBE6E000EBD6E000EBA6E000EBB6EC2
:10362800000EBC6E060EC66EC268EF0EC36E970E15
:10363800C46EF00EC56E3A017069670E606F50690E
:10364800070E806F4069000E716F000E816F000ECB
:10365800516F000E416F000E616F000E5A6F000E21
:103668005B6F000E6A6F000E6B6F000E7A6F000EB4
:103678007B6F000E826F000E426F000E526F000EBD
:10368800626F000E726F4369536963697369070E4D
:10369800836F44695469646974690F0E846F130EEB
:1036A800DE6F1E0E136F1F0E156F140EDF6F1200E4
:1036B8006000F7F2D9FF6000FBF2DAFF6F0078FFD5
:1036C80024F06F0078FF25F06F0078FF26F06F0078
:1036D80078FF27F06000FFF2D9FF600003F3DAFFFC
:1036E8006F0078FF20F06F0078FF21F06F0078FFFF
:1036F80022F06F0078FF23F08CEC14F020C0B5F0B6
:1037080021C0B6F022C0B7F023C0B8F06FEC19F0B2
:10371800B5C0BDF0B6C0BEF012003901A1A597EF43
:103728001BF099EF1BF0A9EF1BF0BD92910E076EED
:10373800000E086E4B0E096E000E0A6E4DC00BF09F
:103748005BEC1AF00001906F8F2B3901A3A9AFEF42
:103758001BF0B1EF1BF0B8EF1BF0DA0E026E000E93
:10376800036E0D0EFAEC1BF03901A3AFBEEF1BF090
:10377800C0EF1BF0C5EF1BF016EC1DF0000EFAECC5
:103788001CF01100EFC016F0F0C017F0F1C018F0EF
:10379800F2C019F0BDC012F0BEC013F0BFC014F0E3
:1037A800C0C015F065EC12F012C0B1F013C0B2F051
:1037B80014C0B3F015C0B4F0000E0001AD6F1B0EBD
:1037C800AE6F800EAF6F470EB06F7FEC1CF0ADC0D0
:1037D800B5F0AEC0B6F0AFC0B7F0B0C0B8F06FEC9F
:1037E80019F0B5C0F3F0B6C0F4F01200066E06503A
:1037F800475C000E4858D8B004EF1CF006EF1CF0E8
:1038080011EF1CF047500224D96E48500320DA6E9D
:10381800DF501FEC1DF0474A482A0650046E056A1F
:103828004750041807E148500518D8A41EEF1CF0AB
:1038380020EF1CF02DEF1CF03D01F9AF26EF1CF036
:1038480028EF1CF02DEF1CF0F29B000E486E000EC6
:10385800476E1200D29EB9501F0B4009B96EB99835
:10386800F00EB916F00EB816B888B88E000E000122
:10387800EF6F240EF06F740EF16F4B0EF26FB20EF5
:10388800BD6F730EBE6FDA0EBF6F380EC06FC6EC19
:103898001BF00001F451B76E6000CFF3B6FF390199
:1038A800A39F938FD28E1200126ED29E3E01F851C2
:1038B800F30B0409F86FF899FA51F80B0409FA6F39
:1038C800FF51C00B1809FF6F0F0EFD17FD51F00BCC
:1038D8000309FD6FC00EF117F88FF8911250D8B494
:1038E80078EF1CF07AEF1CF07DEF1CF03901A19500
:1038F8009185D28E1200000E0001B11B000EB21B82
:10390800000EB31B800EB41BADC0A1F0AEC0A2F078
:10391800AFC0A3F0B0C0A4F0B1C0A5F0B2C0A6F08B
:10392800B3C0A7F0B4C0A8F004EC10F0A1C0ADF08B
:10393800A2C0AEF0A3C0AFF0A4C0B0F012003E0128
:10394800EF516F00C0FB03F0046A03C004F0036A80
:103958000310056E0450066E3901A19505C001F0EB
:1039680006C002F01200830E3D01146F000E156FA1
:10397800020E166F000E1C6F100E196FC496000E03
:10398800186F000E136F020E126F1200000E39012D
:10399800C06F000EC16F000EC26F000EC36F000E25
:1039A800C46F000EC56F000EC66F000EC76F120001
:1039B800E11E3E42E11E0024744C03000100000099
:1039C80000000A000000000000000A0AD7A33B9389
:0339D8001ADA38C0
:1039DC00200E3901D96F000EDB6F000EDD6F080E63
:1039EC00DF6F000EDE6F1200016E3E01F151011807
:1039FC00C00B0118F16FBD82F8811200D29E3E01FE
:103A0C00C18F030EC1130C0EC113D28E1200CAEC5F
:103A1C001CF00CEC1BF0EEEC1CF0B7EC1CF01200E4
:103A2C003901A39F0001F451B76E6000CFF3B6FFCC
:103A3C001200016E600007F0EAFD12003D01F28BEE
:053A4C001200030364F9
:020000040020DA
:10000000FF0FFF0FFF0FFF0FFF0FFF0FFF0FFF0F80
:020000040030CA
:0A000000AAFFF7FF9FFFFFFFFFFFBD
:00000001FF
