:040000000DEF00F010
:04000800E0EF1BF01A
:06001800FF00B5EF19F036
:0720000000020002040000D1
:102008000001E951800BEE6FE951E925F06FE8AF67
:1020180010EF10F012EF10F013EF10F0F081F05104
:10202800D8B419EF10F01BEF10F030EF10F0F029D2
:10203800D8A421EF10F023EF10F02BEF10F0000ED2
:10204800E66F000EE76F000EE86F000EE96FE88F8D
:10205800000EE96F38EF10F0000EE66F000EE76F24
:10206800000EE86F000EE96FED51800BEF6FEE5137
:10207800EF19D8B442EF10F044EF10F045EF10F02C
:10208800EE8DED51ED25EF6FECAF4DEF10F04FEF0A
:1020980010F050EF10F0EF81EF51D8B456EF10F078
:1020A80058EF10F06DEF10F0EF29D8A45EEF10F0A4
:1020B80060EF10F068EF10F0000EEA6F000EEB6FA3
:1020C800000EEC6F000EED6FEC8F000EED6F75EFEC
:1020D80010F0000EEA6F000EEB6F000EEC6F000EB2
:1020E800ED6FF051EF5DD8B07CEF10F07EEF10F09F
:1020F800A5EF10F0EEAD83EF10F085EF10F087EF4D
:1021080010F0800EEE1BF0C0F1F0EFC0F0F0F1C05F
:10211800EFF0E6C0F1F0EAC0E6F0F1C0EAF0E7C09F
:10212800F1F0EBC0E7F0F1C0EBF0E8C0F1F0ECC083
:10213800E8F0F1C0ECF0E9C0F1F0EDC0E9F0F1C071
:10214800EDF0000EF16FF051EFC031F0326A315E00
:10215800000E325A32BEBAEF10F0325009E11A0EB0
:10216800315CD8A0BAEF10F0BCEF10F0F3EF10F02C
:10217800E651E711E811E911D8A4C5EF10F0C8EF4E
:1021880010F0010EC9EF10F0000EF16F000EE66FAF
:10219800000EE76F000EE86F000EE96FEFC0F0F079
:1021A800FCEF10F0F1A1DBEF10F0DDEF10F0E3EF42
:1021B80010F0D890F1310109F16FE5EF10F0D890E7
:1021C800F133E6A1EAEF10F0ECEF10F0EDEF10F0CC
:1021D800F18FE935E933E833E733E633F02BEF5194
:1021E800F05DD8A0FAEF10F0FCEF10F0D6EF10F089
:1021F800EEBD01EF11F003EF11F043EF11F0F051D4
:10220800D8A409EF11F00BEF11F015EF11F0000E43
:10221800E66F000EE76F000EE86F000EE96F64EFDF
:1022280012F0EA51E627EB51E723EC51E823ED5190
:10223800E923E9A122EF11F024EF11F0D0EF11F01A
:10224800F1A129EF11F02BEF11F031EF11F0D89037
:10225800F1310109F16F33EF11F0D890F133E6A1B4
:1022680038EF11F03AEF11F03BEF11F0F18FE9354B
:10227800E933E833E733E633F02BD0EF11F0EA51D6
:10228800E65DEB51E759EC51E859E951800A316EA6
:10229800ED51800A3158D8B054EF11F056EF11F0D3
:1022A80081EF11F0E651EA5D316EE751EB59326E7C
:1022B800E851EC59336EE951ED59346EFF0E312473
:1022C800E66FFF0E3220E76FFF0E3320E86FFF0E38
:1022D8003420E96F800EEE1BF16DF151D8A477EF31
:1022E80011F079EF11F089EF11F0010EE627000ED9
:1022F800E723E823E92389EF11F0EA51E65FEB5180
:10230800E75BEC51E85BED51E95BE651E711E81159
:10231800E911D8A492EF11F094EF11F0C9EF11F080
:10232800F151D8A49AEF11F09CEF11F0C9EF11F018
:10233800000EE66F000EE76F000EE86F000EE96F03
:1023480064EF12F0D890E637E737E837E937F1AFAE
:10235800B0EF11F0B2EF11F0B3EF11F0E681F1A197
:10236800B8EF11F0BAEF11F0BEEF11F0D880F137E5
:10237800C0EF11F0D890F137F051D8B4C6EF11F092
:10238800C8EF11F0C9EF11F0F007E8AFCEEF11F088
:10239800D0EF11F0A6EF11F0000EEF6FF1AFD7EF0D
:1023A80011F0D9EF11F0F1EF11F0F1C031F07F0E1B
:1023B8003116D8B4E2EF11F0E4EF11F0E8EF11F0C4
:1023C800010EEF6FF1EF11F0E6A1EDEF11F0EFEF75
:1023D80011F0F1EF11F0E4EF11F0EF51D8B4F7EF8D
:1023E80011F0F9EF11F024EF12F0010EE627000EBC
:1023F800E723E823E923E9A104EF12F006EF12F03E
:1024080024EF12F0E6C031F0E7C032F0E8C033F054
:10241800E9C034F03434343233323232313231C0FC
:10242800E6F032C0E7F033C0E8F034C0E9F0F02954
:10243800D8B421EF12F023EF12F024EF12F0F02BB2
:10244800F029D8B42AEF12F02CEF12F034EF12F082
:10245800F051D8A432EF12F034EF12F046EF12F038
:10246800000EE66F000EE76F000EE86F000EE96FD2
:10247800F051D8A442EF12F044EF12F046EF12F0F8
:10248800000EEE6FF0A14BEF12F04DEF12F050EF8F
:1024980012F0E88F51EF12F0E89FD890F031E96F11
:1024A800EEAF59EF12F05BEF12F05CEF12F0E98F2C
:1024B800E6C0E6F0E7C0E7F0E8C0E8F0E9C0E9F018
:1024C80012001A50800B236E1A501A24296E19AE66
:1024D80070EF12F072EF12F073EF12F029802950AA
:1024E800D8B479EF12F07BEF12F08EEF12F02928B2
:1024F800D8A481EF12F083EF12F08BEF12F0000EE8
:10250800176E000E186E000E196E000E1A6E198ED8
:1025180096EF12F0000E176E000E186E000E196E70
:10252800000E1A6E1E50800B231A1E501E24286E91
:102538001DAEA1EF12F0A3EF12F0A4EF12F0288065
:102548002850D8B4AAEF12F0ACEF12F0BFEF12F097
:102558002828D8A4B2EF12F0B4EF12F0BCEF12F0B2
:10256800000E1B6E000E1C6E000E1D6E000E1E6E01
:102578001D8EC7EF12F0000E1B6E000E1C6E000EB3
:102588001D6E000E1E6E2850D8B4CDEF12F0CFEF9E
:1025980012F0D7EF12F02950D8A4D5EF12F0D7EFE8
:1025A80012F0E1EF12F0000E176E000E186E000E1A
:1025B800196E000E1A6E8BEF14F01D5017026F0083
:1025C800CCFF2EF06F00D0FF2FF02E50246E256A1E
:1025D800266A276A2F502A6E2B6A2C6A2D6A1C508D
:1025E80018026F00CCFF2EF06F00D0FF2FF02E5096
:1025F8002426000E2522262227222F502A26000EC6
:102608002B222C222D221B5019026F00CCFF2EF0FA
:102618006F00D0FF2FF02E502426000E25222622F0
:1026280027222F502A26000E2B222C222D2226C0AC
:1026380027F025C026F024C025F0246A1B50180274
:102648006F00CCFF2EF06F00D0FF2FF02E50242605
:102658002F502522000E2622000E27221C5017027A
:102668006F00CCFF2EF06F00D0FF2FF02E502426E5
:102678002F502522000E2622000E272226C027F0E2
:1026880025C026F024C025F0246A1B5017026F00CD
:10269800CCFF2EF06F00D0FF2FF02E5024262F50A5
:1026A8002522000E2622000E27221D5018026F0038
:1026B800CCFF2EF06F00D0FF2FF02E502A262F507F
:1026C8002B22000E2C22000E2D221C5019026F0006
:1026D800CCFF2EF06F00D0FF2FF02E502A262F505F
:1026E8002B22000E2C22000E2D221D5019026F00E5
:1026F800CCFF2EF06F00D0FF2FF02E501F6E2F5002
:10270800206E216A226A21C022F020C021F01FC059
:1027180020F01F6A1F502A2620502B2221502C22DD
:1027280022502D2224C01FF025C020F026C021F001
:1027380027C022F0190EA6EF13F0D89022322132CA
:1027480020321F32E82EA1EF13F01F502A26205006
:102758002B2221502C2222502D2226C027F025C0C2
:1027680026F024C025F0246A285029C01FF0206ACA
:102778001F26000E2022820E1F242E6EFF0E202000
:102788002F6EDCEF13F0D8902A362B362C362D36E8
:1027980027AED1EF13F0D3EF13F0D4EF13F02A8064
:1027A800D89024362536263627362E06D8A02F066A
:1027B8002CAEE1EF13F0E3EF13F0C7EF13F0000EC8
:1027C800286E27AEEAEF13F0ECEF13F010EF14F0D9
:1027D800FF0E24141F6EFF0E2514206EFF0E261404
:1027E800216E7F0E2714226E1F50201021102210F8
:1027F800D8B401EF14F003EF14F007EF14F0010E52
:10280800286E10EF14F02AA00CEF14F00EEF14F05D
:1028180010EF14F003EF14F02850D8B416EF14F0AA
:1028280018EF14F03CEF14F0010E2A26000E2B22AC
:102838002C222D222DA023EF14F025EF14F03CEFCD
:1028480014F02AC01FF02BC020F02CC021F02DC09E
:1028580022F022342232213220321F321FC02AF0C5
:1028680020C02BF021C02CF022C02DF02E4A2F2A98
:102878002FBE47EF14F02F5008E12E28D8A047EFBD
:1028880014F049EF14F053EF14F0000E2A6E000E06
:102898002B6E800E2C6E7F0E2D6E81EF14F02FBEE6
:1028A80060EF14F02F5006E12E04D8B05EEF14F05C
:1028B80060EF14F06CEF14F0000E2A6E000E2B6E11
:1028C800000E2C6E000E2D6E000E236E81EF14F09C
:1028D8002EC029F0FF0E2A16FF0E2B167F0E2C167F
:1028E800000E2D1629A07BEF14F07DEF14F07EEF7B
:1028F80014F02C8ED89029302D6E23502D122AC01A
:1029080017F02BC018F02CC019F02DC01AF01200C7
:102918002850800B0001DD6F28502824E46F27AE73
:1029280098EF14F09AEF14F09BEF14F0E481E4515F
:10293800D8B4A1EF14F0A3EF14F0B8EF14F0E42921
:10294800D8A4A9EF14F0ABEF14F0B3EF14F0000E15
:10295800256E000E266E000E276E000E286E278E3E
:10296800000E286EC0EF14F0000E256E000E266EC5
:10297800000E276E000E286E2C50800BDD1B2C508D
:102988002C24E56F2BAECBEF14F0CDEF14F0CEEF87
:1029980014F0E581E551D8B4D4EF14F0D6EF14F073
:1029A800EBEF14F0E529D8A4DCEF14F0DEEF14F017
:1029B800E6EF14F0000E296E000E2A6E000E2B6E44
:1029C800000E2C6E2B8E000E2C6EF3EF14F0000E02
:1029D800296E000E2A6E000E2B6E000E2C6E2950EA
:1029E8002A102B102C10D8A4FCEF14F0FEEF14F0D2
:1029F80016EF15F0000E256E000E266E000E276EDF
:102A0800000E286E800E27127F0E2812DD51281224
:102A180025C025F026C026F027C027F028C028F0BA
:102A280059EF16F0E451D8A41CEF15F01EEF15F07D
:102A380028EF15F0000E256E000E266E000E276E8C
:102A4800000E286E59EF16F0E551E4C02DF02E6AFD
:102A58002D5E000E2E5A7F0E2D24DE6F000E2E20C6
:102A6800DF6F25C0D9F026C0DAF027C0DBF028C018
:102A7800DCF0000E256E000E266E000E276E000E8E
:102A8800286E000EE06F000EE16F000EE26F000E80
:102A9800E36F000EE56F89EF15F0E551D8B457EFF5
:102AA80015F059EF15F070EF15F0D890D937DA37DF
:102AB800DB37DC37D8902536263627362836E3AF7D
:102AC80068EF15F06AEF15F06BEF15F02580D890D8
:102AD800E037E137E237E3372950D95D2A50DA5930
:102AE8002B50DB592C50DC59D8A07DEF15F07FEF27
:102AF80015F088EF15F0E38D2950D95F2A50DA5B7D
:102B08002B50DB5B2C50DC5BE52B190EE5658FEF5A
:102B180015F091EF15F051EF15F0D951DA11DB11DD
:102B2800DC11D8B49AEF15F09CEF15F0B4EF15F05E
:102B3800E081B4EF15F0D8902536263627362836AA
:102B4800E3AFA9EF15F0ABEF15F0ACEF15F025806A
:102B5800D890E037E137E237E337DE07D8A0DF0760
:102B680027AEB9EF15F0BBEF15F09FEF15F0000E8B
:102B7800E56FE3AFC2EF15F0C4EF15F0E8EF15F01D
:102B8800FF0EE0152D6EFF0EE1152E6EFF0EE215FD
:102B98002F6E7F0EE315306E2D502E102F10301033
:102BA800D8B4D9EF15F0DBEF15F0DFEF15F0010E13
:102BB800E56FE8EF15F025A0E4EF15F0E6EF15F066
:102BC800E8EF15F0DBEF15F0E551D8B4EEEF15F0AE
:102BD800F0EF15F014EF16F0010E2526000E262250
:102BE8002722282228A0FBEF15F0FDEF15F014EF9F
:102BF80016F025C02DF026C02EF027C02FF028C0D3
:102C080030F0303430322F322E322D322DC025F0B4
:102C18002EC026F02FC027F030C028F0DE4BDF2B67
:102C2800DFBF1FEF16F0DF5108E1DE29D8A01FEF44
:102C380016F021EF16F02CEF16F0000EDF6FDE69AC
:102C4800000E256E000E266E000E276E000E286EF2
:102C5800DFBF39EF16F0DF5106E1DE05D8B037EFF8
:102C680016F039EF16F047EF16F0000EDF6F000E82
:102C7800DE6F000E256E000E266E000E276E000E0B
:102C8800286E000EDD6FDEC0E4F0E4A14EEF16F012
:102C980050EF16F053EF16F0278E54EF16F0279EDC
:102CA800D890E431286E0AEF15F012006000AFF0FA
:102CB800D9FF6000B3F0DAFF6F0078FF2DF06F00E6
:102CC80074FF2EF0D8902D362E362D502924D96E2B
:102CD8002E502A20DA6E60008FF0DEFF600093F03D
:102CE800DDFF6000AFF0D9FF6000B3F0DAFF10EE4F
:102CF80002F02B50E1262C50E2226F007BFFE6FF0A
:102D08006F0077FFE5FF20EE04F02B50D9262C50FA
:102D1800DA22600097F0DEFF60009BF0DDFF20EE16
:102D280002F02B50D9262C50DA226F0078FF2DF0B4
:102D38006F0074FF2EF0D8902D362E3629C02FF054
:102D48002AC030F02D502F262E50302220EE06F0CB
:102D58002B50D9262C50DA226000BFF0DEFF60002D
:102D6800C3F0DDFF000E0001B96F000EBA6F000E50
:102D7800BB6F000EBC6F000EDA6F000ED96F6CEFE0
:102D880017F020EE04F02B50D9262C50DA226F00D1
:102D980078FF2DF06F0074FF2EF06000B7F0D9FFB8
:102DA8006000BBF0DAFF6F0078FF17F06F0074FF68
:102DB80018F0000E18BEFF0E196E1A6E20EE06F0FF
:102DC8002B50D9262C50DA226F0078FF2FF06F0095
:102DD80074FF30F06000BFF0D9FF6000C3F0DAFF85
:102DE8006F0078FF31F06F0074FF32F031C01BF0D4
:102DF80032C01CF01D6A1E6AAEEC1CF017500001B0
:102E0800B9271850BA231950BB231A50BC2320EEF7
:102E180002F02B50D9262C50DA22DE50DE10D8A42E
:102E280018EF17F01AEF17F034EF17F0FF0E2D6EAA
:102E3800FF0E2E6E27C02FF028C030F02D502F2601
:102E48002E50302220EE02F02B50D9262C50DA22B8
:102E58006000BFF0DEFF6000C3F0DDFF3DEF17F05C
:102E680020EE02F02B50D9262C50DA22DE06000E76
:102E7800DD5A20EE02F02B50D9262C50DA226F00B2
:102E880078FF2DF06F0074FF2EF0D8902D362E3677
:102E980029C02FF02AC030F02D502F262E50302276
:102EA80020EE06F02B50D9262C50DA226000BFF015
:102EB800DEFF6000C3F0DDFF20EE04F02B50D926C2
:102EC8002C50DA22020EDE26000EDD22D94BDA2B38
:102ED8002750D95D2850DA59D8A075EF17F077EF49
:102EE80017F0C5EF16F06000AFF0D9FF6000B3F03F
:102EF800DAFFDE2A000EDD226000AFF0D9FF6000A5
:102F0800B3F0DAFF2750DE5C2850DE58D8B08FEFD8
:102F180017F091EF17F09FEF17F06000AFF0D9FFAF
:102F28006000B3F0DAFF6F0078FFDBF06F0074FF2A
:102F3800DCF0A3EF17F0000EDC6F000EDB6F600013
:102F4800AFF0D9FF6000B3F0DAFF60006FF3DEFF87
:102F5800600073F3DDFF100E2D6EB9C02EF0BAC0FD
:102F68002FF0BBC030F0BCC031F02D66BEEF17F0BB
:102F7800C6EF17F03134313230322F322E322D2E47
:102F8800B9EF17F02EC023F02FC024F030C025F081
:102F980031C026F012001F6E1F50D8B4D6EF17F0BC
:102FA800D8EF17F0FAEF17F01ABEDFEF17F0DDEFE2
:102FB80017F0FAEF17F017C01BF018C01CF019C073
:102FC8001DF01AC01EF01B1E1C1E1D1E1E1E1B2AD5
:102FD800000E1C221D221E221BC021F01CC022F044
:102FE8001DC023F01EC024F002EF18F017C021F016
:102FF80018C022F019C023F01AC024F01750181076
:1030080019101A10D8A40BEF18F00DEF18F017EFDD
:1030180018F0000E176E000E186E000E196E000ED6
:103028001A6EA8EF18F0960E206E21EF18F0202ADD
:10303800D8902432233222322132000E21141B6E02
:10304800000E22141C6E000E23141D6EFE0E241496
:103058001E6E1B501C101D101E10D8A436EF18F041
:1030680038EF18F01BEF18F046EF18F0202A010E81
:103078002126000E222223222422D8902432233211
:1030880022322132000E21141B6E000E22141C6EF7
:10309800000E23141D6EFF0E24141E6E1B501C10F0
:1030A8001D101E10D8A45BEF18F05DEF18F03AEF72
:1030B80018F065EF18F02006D8902136223623360E
:1030C800243623BE6AEF18F06CEF18F074EF18F08E
:1030D800020E206072EF18F074EF18F05FEF18F02E
:1030E80020B079EF18F07BEF18F07CEF18F0239EF2
:1030F800D890203220C01BF01C6A1D6A1E6A1BC0B3
:103108001EF01D6A1C6A1B6A1B5021121C502212D9
:103118001D5023121E5024121F50D8B496EF18F0D9
:1031280098EF18F0A0EF18F01ABE9FEF18F09DEF77
:1031380018F0A0EF18F0248E21C017F022C018F064
:1031480023C019F024C01AF01200ADEC1EF0000ED6
:103158000101EE6FE80EEF6F030EF06F000EF16FD6
:10316800010EF26F1EEC1AF0A7EC1DF0A4EC1EF095
:10317800010ED2EC1DF068EC1EF0A30E0101EE6FFB
:10318800000EEF6F9F0EF06F000EF16F79EC1CF0E0
:10319800EEC13BF0EFC13CF0BE80BB88C90E176E94
:1031A800000E186E3FEC1EF0C10E176E000E186E62
:1031B8003FEC1EF00001C051D8B4E5EF18F0E7EF7E
:1031C80018F0DEEF18F0000EC06FBD80D7C023F0F6
:1031D800D8C024F0240E256E020E266E000E286E2E
:1031E8001F0E276EC00E296E010E2A6EC90E2B6E99
:1031F800000E2C6E5AEC16F023C0D3F024C0D4F085
:10320800BD90D5C0D1F0D6C0D2F0D10E176E000E49
:10321800186EE2EC1AF0D1C017F0D2C018F0960E72
:10322800196E000E1A6E000E1B6E2EEC1CF0D3C029
:1032380017F0D4C018F0960E196E000E1A6E040E10
:103248001B6E2EEC1CF0960E176E000E186E7BECA3
:103258001DF0DEEF18F00DEF00F00101E635E7355F
:10326800ED6FED51D8A43BEF19F03DEF19F047EFA2
:1032780019F0000EE46F000EE56F000EE66F000E09
:10328800E76FB4EF19F0E4C1E8F1E5C1E9F1E6C18F
:10329800EAF1E7C1EBF1200E57EF19F0D890EB33C4
:1032A800EA33E933E833E82E52EF19F0E851EC6FCE
:1032B800E68FFF0EE417FF0EE517FF0EE617000E68
:1032C800E717960EED5FEDBF6EEF19F06CEF19F092
:1032D80084EF19F0ED51800A970FD8B076EF19F006
:1032E80078EF19F07AEF19F03DEF19F0D890E7333D
:1032F800E633E533E433ED3F7AEF19F09CEF19F04C
:103308001F0EED658AEF19F08CEF19F094EF19F0A4
:103318003DEF19F0D890E437E537E637E737ED07A2
:10332800ED51D8A49AEF19F09CEF19F08EEF19F02F
:10333800EC51D8B4A2EF19F0A4EF19F0ACEF19F0E2
:10334800E71FE61FE51FE46D000EE523E623E723EC
:10335800E4C1E4F1E5C1E5F1E6C1E6F1E7C1E7F171
:103368001200940EF66E3A0EF76E000EF86E00EE2E
:1033780000F210EE62F009006F00D7FFEEFFE55093
:10338800E150F9E1780EF66E360EF76E000EF86E23
:1033980000EE00F110EEA8F009006F00D7FFEEFF75
:1033A800E550E150F9E1360EF66E3C0EF76E000E70
:1033B800F86E00EE60F010EE47F009006F00D7FFDE
:1033C800EEFFE550E150F9E17E0EF66E3D0EF76E28
:1033D800000EF86E00EE35F010EE0DF009006F00EB
:1033E800D7FFEEFFE550E150F9E100EE62F2240E5E
:1033F800EE6AE806FDE100EEA8F13C0EEE6AE8068A
:10340800FDE100EEA7F0320EEE6AE806FDE100EEFF
:1034180042F0080EEE6AE806FDE1080ED56E000ED1
:10342800D66E000ED76E000EF86E200EF76E0001F5
:10343800A9EF18F0D29E000E0001EA6F000EEB6FA4
:10344800800EEC6FBF0EED6FEEC1F3F1EFC1F4F13A
:10345800F0C1F5F1F1C1F6F1020ED8900101F33790
:10346800F437F537F637E82E31EF1AF0F3C117F0D5
:10347800F4C118F0F5C119F0F6C11AF0000ECFEC3E
:1034880017F017C029F018C02AF019C02BF01AC07D
:103498002CF0000E256E240E266E740E276E4C0E30
:1034A800286E8CEC14F025C0E6F026C0E7F027C0A3
:1034B800E8F028C0E9F004EC10F0E6C0E4F1E7C059
:1034C800E5F1E8C0E6F1E9C0E7F131EC19F0E4C153
:1034D800F7F1E5C1F8F10101F8513D01F66F60001F
:1034E800DFF7F5FDF28FF00EF217170E3A01E56FD0
:1034F800130E166F3D01F38F3901938993873D01B0
:10350800F289D28E120054EC1EF0600027F0D9FF29
:1035180060002BF0DAFFDF500C6E0C50020D6F00CC
:10352800CCFF0DF06F00D0FF0EF00D500724D96EC0
:103538000E500820DA6E600007F0DEFF60000BF026
:10354800DDFF600027F0D9FF60002BF0DAFFDF50C5
:103558000C6E0D6AFF0E0E6EFF0E0F6E0B50106E86
:10356800116A0E5010260F5011220C50101807E146
:103578000D501118D8A4C3EF1AF0C5EF1AF0D0EF08
:103588001AF0600027F0D9FF60002BF0DAFF000E78
:10359800DF6E010EE1EF1AF0600027F0D9FF60003E
:1035A8002BF0DAFFDF2A600027F0D9FF60002BF04C
:1035B800DAFFDF5099EC1EF0000E1200CBEC1EF083
:1035C800BE9020EE02F01750D9261850DA226F006C
:1035D80078FF19F06F0074FF1AF01AC019F01A6A10
:1035E800195020093D01116F20EE02F01750D9261D
:1035F8001850DA22DF50116F17AB05EF1BF007EFF9
:103608001BF000EF1BF0BE80BB98BB98BB98BB8833
:10361800BB88BB88BB88BB88BB88BB88BE9020EEB4
:1036280002F01750D9261850DA226F0078FF19F0E7
:103638006F0074FF1AF01AC019F01A6A1950A0091D
:10364800116F20EE02F01750D9261850DA22DF50F9
:10365800116F17AB32EF1BF034EF1BF02DEF1BF09F
:10366800BE80BB98BB98BB98BB88CEEC1EF01200FE
:103678000000803FB125B9A5C296E43E0000803F16
:10368800811085A51810223D0000803F000000C071
:103698000000803F0000803F000000C00000803F25
:1036A8000000803F48FFE7BE3AC2EE3E0000803F80
:1036B800806FA8BE8846843D0000803F000000401F
:1036C8000000803F0000803F000000400000803F75
:1036D8000000803F13B38B3FB1B84B3F0000803FE1
:1036E8005B40313F8965443F0000803F80F9813F5E
:1036F8000000803F0000803F80F9813F0000803F4C
:10370800000080006006A015402A40394039402A50
:10371800A015600680000000000EBE6E000EBD6E93
:10372800000EBA6E000EBB6E000EBC6E060EC66EA4
:10373800C268EF0EC36E970EC46EF00EC56E3A01E6
:103748007069670E606F5069070E806F4069000EE0
:10375800716F000E816F000E516F000E416F000EE9
:10376800616F000E5A6F000E5B6F000E6A6F000EDD
:103778006B6F000E7A6F000E7B6F000E826F000E6B
:10378800426F000E526F000E626F000E726F436937
:10379800536963697369070E836F4469546964697F
:1037A80074690F0E846F130EDE6F1E0E136F1F0EDB
:1037B800156F140EDF6F12003901A3AFE6EF1BF08F
:1037C800E8EF1BF00CEF1CF0B6EC1EF0FF0E136ECA
:1037D800FF0E146E3BC015F03CC016F013501526B2
:1037E8001450162215503D5C16503E58D8B0FFEFC5
:1037F8001BF001EF1CF005EF1CF03D4A3E2A0CEFD0
:103808001CF0000E3E6E000E3D6E000E99EC1EF090
:103818003901A3A912EF1CF014EF1CF016EF1CF0ED
:1038280017EC1DF03901A1A51CEF1CF01EEF1CF0D0
:103838002DEF1CF0BD92D50E076E000E086E490ED6
:10384800096E000E0A6E40C00BF087EC1AF00001FA
:10385800C06F1100000E206E205003081C6ED89017
:103868001C36D8901C3617C01DF018C01EF01C2A34
:1038780041EF1CF0D8901E321D321C2E3EEF1CF07A
:103888001D500F0B1F6E0A0E1F604DEF1CF04FEFFF
:103898001CF060EF1CF0205019241C6E000E1A203A
:1038A8001D6E1B501C24D96E000E1D20DA6E1F5091
:1038B800300FDF6E6FEF1CF0205019241C6E000EC5
:1038C8001A201D6E1B501C24D96E000E1D20DA6EA6
:1038D8001F50370FDF6E202A030E206476EF1CF08E
:1038E80078EF1CF030EF1CF012006000BBF7D9FF36
:1038F8006000BFF7DAFF6F0078FF29F06F0078FFEC
:103908002AF06F0078FF2BF06F0078FF2CF0600032
:10391800C3F7D9FF6000C7F7DAFF6F0078FF25F01B
:103928006F0078FF26F06F0078FF27F06F0078FFB0
:1039380028F08CEC14F025C0E4F126C0E5F127C08E
:10394800E6F128C0E7F131EC19F0E4C1EEF1E5C188
:10395800EFF11200000E1F6E000E206E000E216E99
:10396800000E226E17A0BBEF1CF0BDEF1CF0C5EFD8
:103978001CF01B501F261C5020221D5021221E50B7
:103988002222D8901B361C361D361E36D8901A3285
:103998001932183217321750181019101A10D8A4E3
:1039A800D8EF1CF0DAEF1CF0B6EF1CF01FC017F0D0
:1039B80020C018F021C019F022C01AF01200FAC075
:1039C8001BF0FBC01CF0FCC01DF0FDC01EF0EEC1DA
:1039D80017F0EFC118F0F0C119F0F1C11AF065EC59
:1039E80012F017C0F6F018C0F7F019C0F8F01AC0B6
:1039F800F9F0000E0001F26F170EF36F800EF46FEE
:103A0800470EF56FF7EC1DF0F2C0E4F1F3C0E5F1F5
:103A1800F4C0E6F1F5C0E7F131EC19F0E4C1FEF0CD
:103A2800E5C1FFF012004150465C000E4758D8B07F
:103A380020EF1DF022EF1DF02DEF1DF0A70E4624FC
:103A4800D96E000E4720DA6EDF50C6EC1EF0464AEB
:103A5800472A4150026E036A4650021807E1475050
:103A68000318D8A43AEF1DF03CEF1DF049EF1DF004
:103A78003D01F9AF42EF1DF044EF1DF049EF1DF095
:103A8800F29B000E476E000E466E1200000000000A
:103A98008001800240FB00F20000C02F005F005F41
:103AA800C02F000000F240FB8002800100000000EF
:103AB800000000004000000080FF000080010000BE
:103AC800C0FC000000060000C0F3000040280040D1
:103AD80040280000C0F3000000060000C0FC000001
:103AE8008001000080FF0000400000000000000E80
:103AF8001D6E000E1C6E92EF1DF01C501724D96E1F
:103B08001D501820DA6EA70E1C24E16E000E1D2031
:103B1800E26E6F007FFFE7FF1C4A1D2A4150196EB5
:103B28001A6A19501C5C1D50800A1B6E1A50800AB4
:103B38001B58D8A0A2EF1DF0A4EF1DF081EF1DF0D7
:103B48003D01F28B1200D29EB9501F0B4009B96E8D
:103B5800B998F00EB916F00EB816B888B88E000EDF
:103B68000001FA6F240EFB6F740EFC6F4B0EFD6F95
:103B7800170E0101EE6FB70EEF6FD10EF06F380E12
:103B8800F16FE3EC1CF00001FF51B76E6000FBF32E
:103B9800B6FF3901A39F938FD28E1200176ED29E63
:103BA8003E01F851F30B0409F86FF899F80EFA176B
:103BB800FF51C00B1109FF6F0F0EFD17FD51F00BE0
:103BC8000309FD6FC00EF117F88FF8911750D8B49C
:103BD800F0EF1DF0F2EF1DF0F5EF1DF03901A195A2
:103BE8009185D28E1200000E0001F61B000EF71B05
:103BF800000EF81B800EF91BF2C0E6F0F3C0E7F0E8
:103C0800F4C0E8F0F5C0E9F0F6C0EAF0F7C0EBF070
:103C1800F8C0ECF0F9C0EDF004EC10F0E6C0F2F0FA
:103C2800E7C0F3F0E8C0F4F0E9C0F5F012000000D6
:103C3800C009802AC04BC04B802AC0090000B125AA
:103C4800B93E8110853EBCB0813E11513C3EE43BFB
:103C5800623FE43B623F0024744C02000200020011
:103C68001F00010000000000000000000A610BB600
:053C78003B17B7D13835
:103C7E0060005FF0D9FF600063F0DAFF000EDE6EC9
:103C8E00000EDD6E20EE02F01750D9261850DA2203
:103C9E00000EDE6E000EDD6E12003E01EF516F0063
:103CAE00C0FB03F0046A03C004F0036A0310056E40
:103CBE000450066E3901A19505C001F006C002F050
:103CCE001200830E3D01146F000E156F020E166F5B
:103CDE00000E1C6F100E196FC496000E186F000E9A
:103CEE00136F020E126F1200000E3901C06F000E1C
:103CFE00C16F000EC26F000EC36F000EC46F000EB8
:103D0E00C56F000EC66F000EC76F1200200E390170
:103D1E00D96F000EDB6F000EDD6F080EDF6F000E29
:103D2E00DE6F1200016E3E01F1510118C00B011839
:103D3E00F16FF881BD82BD821200D29E3E01C18F0D
:103D4E00030EC1130C0EC113D28E12007BEC1EF0AB
:103D5E0090EC1BF08DEC1EF068EC1EF01200390199
:103D6E00A39F0001FF51B76E6000FBF3B6FF120078
:0D3D7E0012000C0008000100010003020902
:103D8C00016E600007F0EAFD12003D01148F120075
:063D9C003D01149F12001E
:020000040020DA
:10000000FF0FFF0FFF0FFF0FFF0FFF0FFF0FFF0F80
:020000040030CA
:0A000000AAFFF7FF9FFFFFFFFFFFBD
:00000001FF
